:0400000097EF08F07E
:1006000000505245535345440000026E4FD3000E34
:1006100078EC08F07E0E78EC08F0090E78EC08F023
:10062000090E78EC08F0090E78EC08F07E0E78ECF4
:1006300008F0000E78EC08F01200000E78EC08F0DC
:100640007F0E78EC08F0490E78EC08F0490E78EC53
:1006500008F0490E78EC08F0360E78EC08F0000E41
:1006600078EC08F01200000E78EC08F03E0E78EC02
:1006700008F0410E78EC08F0410E78EC08F0410EDD
:1006800078EC08F0220E78EC08F0000E78EC08F018
:100690001200000E78EC08F07F0E78EC08F0410EA6
:1006A00078EC08F0410E78EC08F0410E78EC08F098
:1006B0003E0E78EC08F0000E78EC08F01200000E08
:1006C00078EC08F07F0E78EC08F0490E78EC08F032
:1006D000490E78EC08F0490E78EC08F0410E78EC01
:1006E00008F0000E78EC08F01200000E78EC08F02C
:1006F0007F0E78EC08F0090E78EC08F0090E78EC23
:1007000008F0090E78EC08F0010E78EC08F0000E05
:1007100078EC08F01200000E78EC08F03E0E78EC51
:1007200008F0410E78EC08F0410E78EC08F0490E24
:1007300078EC08F03A0E78EC08F0000E78EC08F04F
:100740001200000E78EC08F07F0E78EC08F0080E2E
:1007500078EC08F0080E78EC08F0080E78EC08F059
:100760007F0E78EC08F0000E78EC08F01200000E16
:1007700078EC08F0000E78EC08F0410E78EC08F008
:100780007F0E78EC08F0410E78EC08F0000E78EC63
:1007900008F0000E78EC08F01200000E78EC08F07B
:1007A000300E78EC08F0400E78EC08F0400E78EC53
:1007B00008F0400E78EC08F03F0E78EC08F0000EE0
:1007C00078EC08F01200000E78EC08F07F0E78EC60
:1007D00008F0080E78EC08F0140E78EC08F0220E01
:1007E00078EC08F0410E78EC08F0000E78EC08F098
:1007F0001200000E78EC08F07F0E78EC08F0400E46
:1008000078EC08F0400E78EC08F0400E78EC08F038
:10081000400E78EC08F0000E78EC08F01200000EA4
:1008200078EC08F07F0E78EC08F0020E78EC08F017
:100830000C0E78EC08F0020E78EC08F07F0E78ECE5
:1008400008F0000E78EC08F01200000E78EC08F0CA
:100850007F0E78EC08F0020E78EC08F0040E78ECCD
:1008600008F0080E78EC08F07F0E78EC08F0000E27
:1008700078EC08F01200000E78EC08F03E0E78ECF0
:1008800008F0410E78EC08F0410E78EC08F0410ECB
:1008900078EC08F03E0E78EC08F0000E78EC08F0EA
:1008A0001200000E78EC08F07F0E78EC08F0090ECC
:1008B00078EC08F0090E78EC08F0090E78EC08F0F6
:1008C000060E78EC08F0000E78EC08F01200000E2E
:1008D00078EC08F01E0E78EC08F0210E78EC08F0A9
:1008E000210E78EC08F0210E78EC08F05E0E78EC22
:1008F00008F0000E78EC08F01200000E78EC08F01A
:100900007F0E78EC08F0090E78EC08F0090E78EC10
:1009100008F0090E78EC08F0760E78EC08F0000E7E
:1009200078EC08F01200000E78EC08F0260E78EC57
:1009300008F0490E78EC08F0490E78EC08F0490E02
:1009400078EC08F0320E78EC08F0000E78EC08F045
:100950001200000E78EC08F0010E78EC08F0010EA1
:1009600078EC08F07F0E78EC08F0010E78EC08F0D7
:10097000010E78EC08F0000E78EC08F01200000E82
:1009800078EC08F03F0E78EC08F0400E78EC08F0B8
:10099000400E78EC08F0400E78EC08F03F0E78EC52
:1009A00008F0000E78EC08F01200000E78EC08F069
:1009B0001F0E78EC08F0200E78EC08F0400E78EC72
:1009C00008F0200E78EC08F01F0E78EC08F0000E0E
:1009D00078EC08F01200000E78EC08F07F0E78EC4E
:1009E00008F0200E78EC08F0100E78EC08F0200EDD
:1009F00078EC08F07F0E78EC08F0000E78EC08F048
:100A00001200000E78EC08F0410E78EC08F0220E8F
:100A100078EC08F01C0E78EC08F0220E78EC08F068
:100A2000410E78EC08F0000E78EC08F01200000E91
:100A300078EC08F0070E78EC08F0080E78EC08F077
:100A4000700E78EC08F0080E78EC08F0070E78ECE1
:100A500008F0000E78EC08F01200000E78EC08F0B8
:100A6000610E78EC08F0510E78EC08F0490E78EC45
:100A700008F0450E78EC08F0430E78EC08F0000E14
:100A800078EC08F01200000E78EC08F03E0E78ECDE
:100A900008F0510E78EC08F0490E78EC08F0450E9D
:100AA00078EC08F03E0E78EC08F0000E78EC08F0D8
:100AB0001200000E78EC08F0040E78EC08F0020E3C
:100AC00078EC08F07F0E78EC08F0000E78EC08F077
:100AD000000E78EC08F0000E78EC08F01200000E22
:100AE00078EC08F0420E78EC08F0610E78EC08F033
:100AF000510E78EC08F0490E78EC08F0460E78ECD0
:100B000008F0000E78EC08F01200000E78EC08F007
:100B1000220E78EC08F0410E78EC08F0490E78ECE3
:100B200008F0490E78EC08F0360E78EC08F0000E6C
:100B300078EC08F01200000E78EC08F0180E78EC53
:100B400008F0140E78EC08F0120E78EC08F07F0E26
:100B500078EC08F0100E78EC08F0000E78EC08F055
:100B60001200000E78EC08F0270E78EC08F0450E25
:100B700078EC08F0450E78EC08F0450E78EC08F0BB
:100B8000390E78EC08F0000E78EC08F01200000E38
:100B900078EC08F03E0E78EC08F0490E78EC08F09E
:100BA000490E78EC08F0490E78EC08F0320E78EC3B
:100BB00008F0000E78EC08F01200000E78EC08F057
:100BC000010E78EC08F0010E78EC08F0710E78EC6C
:100BD00008F0090E78EC08F0070E78EC08F0000E2B
:100BE00078EC08F01200000E78EC08F0360E78EC85
:100BF00008F0490E78EC08F0490E78EC08F0490E40
:100C000078EC08F0360E78EC08F0000E78EC08F07E
:100C10001200000E78EC08F0260E78EC08F0490E71
:100C200078EC08F0490E78EC08F0490E78EC08F002
:100C30003E0E78EC08F0000E78EC08F01200000E82
:100C400078EC08F0000E78EC08F0000E78EC08F074
:100C5000000E78EC08F0000E78EC08F01200FF0EA1
:100C600078EC08F0FF0E78EC08F0FF0E78EC08F056
:100C7000FF0E78EC08F0FF0E78EC08F01200FF0E83
:100C800078EC08F01200000E78EC08F00C0E78EC0E
:100C900008F0120E78EC08F0120E78EC08F00C0E4A
:100CA00078EC08F0000E78EC08F012000250140AFC
:100CB000D8B4E5D7340AD8B4C2D70A0AD8B4E3D72F
:100CC0001A0AD8B4E0D6010AD8B4F3D6030AD8B4C5
:100CD00006D7010AD8B419D7070AD8B42CD7010A05
:100CE000D8B43FD7030AD8B452D7010AD8B465D7CD
:100CF0000F0AD8B478D7010AD8B48BD7780AD8B4F9
:100D000086D4030AD8B499D4010AD8B4ACD4070A5B
:100D1000D8B4BFD4010AD8B4D2D4030AD8B4E5D425
:100D2000010AD8B4F8D40F0AD8B40BD5010AD8B444
:100D30001ED5030AD8B431D5010AD8B444D5070A60
:100D4000D8B457D5010AD8B46AD5030AD8B47DD52A
:100D5000010AD8B490D51F0AD8B4A3D5010AD8B4D3
:100D6000B6D5030AD8B4C9D5010AD8B4DCD5070A68
:100D7000D8B4EFD5010AD8B402D6030AD8B415D630
:100D8000010AD8B428D60F0AD8B43BD6010AD8B481
:100D90004ED6030AD8B461D6260AD8A412005FD76B
:100DA000010E1C6E000E1D6E0F0E1D6401D02FD0A3
:100DB0001D50010D0C0EF324D96E000EF420DA6ED6
:100DC000000EDF6E1D2AF0D71C50010D0C0EF3240F
:100DD000D96E000EF420DA6E08C001F009C002F0EE
:100DE000000E046E0A0E036EEEEC07F00150DF6E8B
:100DF00008C001F009C002F0000E046E0A0E036E76
:100E0000C5EC07F001C008F002C009F01C2A085028
:100E10000910D8A4D9D71C500A6E0B6A010E0A26F5
:100E2000000E0B220C0E0A24D96E000E0B20DA6E77
:100E3000000EDF6E1CC01DF01D50D8B412001D50F6
:100E4000010D0C0EF324D96E000EF420DA6EDF5083
:100E5000300F05EC03F01D06EFD7300E896E1A0E29
:100E6000016EF80EE82EFED7012EFCD700D080CF01
:100E700001F0310E0116D8A408D080CF01F0310E58
:100E80000116D8B4FAD7300E120080CF01F0320E1E
:100E90000116D8A408D080CF01F0320E0116D8B4C4
:100EA000FAD7310E120080CF01F0340E0116D8A40B
:100EB00008D080CF01F0340E0116D8B4FAD7320E24
:100EC000120080B6CAD780A6FED7330E1200000EDD
:100ED0000F01386F070E926E7C0E896E47EC08F09A
:100EE0005BEC08F0000E036E000E8FEC08F0010EB4
:100EF000036E060E046E9BEC07F08968140E036EF9
:100F0000000E8FEC08F02DEC07F01E6E1E50086EE0
:100F1000096AD0EC06F0150E1F6E4B0E1E6EBE0E4B
:100F2000E82EFED71E2EFCD71F2EFAD700D0010EBA
:100F30000FEC08F0E2D7000E076E13D00750010D3A
:100F400003C005F004C006F0F3500526F450062255
:100F500005C0F6FF06C0F7FF0800F55005EC03F0EA
:100F6000072A0750010D03C005F004C006F0F35036
:100F70000526F450062205C0F6FF06C0F7FF08005C
:100F8000F5500009D8B41200D9D7000E066E000E35
:100F9000056E03500410D8B41CD0010E076E04D0A7
:100FA000D89003360436072A04AEFAD7D89005360F
:100FB00006360350015C04500258D8A005D00350F7
:100FC000015E0450025A0580D89004320332072E85
:100FD000EDD705C001F006C002F012000350041066
:100FE000D8B418D0010E056E04D0D890033604365C
:100FF000052A04AEFAD70350015C04500258D8A069
:1010000004D00350015E0450025AD89004320332D7
:10101000052EF1D701C001F002C002F01200056EEA
:1010200005C003F0000E8FEC08F005C003F0400E81
:101030008FEC08F08188000E076E000E066E07BE6A
:1010400006D007500AE1410E065CD8B01200000E2F
:1010500078EC08F0064A072AF2D71200026E819057
:101060008192400E026005D08188819A02C001F011
:1010700005D0818A81980250C00F016E015040094D
:101080007F0B016E01C083FF84EC08F01200000E9C
:10109000956E000E936E000E836E000E816E81863B
:1010A0008188818A8188818A819081923F0E836EB6
:1010B00084EC08F01200000E096E000E086E095054
:1010C0000AE1080E085CD8B0120008500FEC08F0D6
:1010D000084A092AF4D71200016E819081920150CA
:1010E000B809BF0B026E02C083FF84EC08F0120047
:1010F000016E8180819201C083FF060EE82EFED72B
:1011000000D084EC08F012008184060EE82EFED791
:1011100000D08194060EE82EFED700D01200046E97
:1011200004502EEC08F003506CEC08F01200000E96
:08113000F86E000167EF07F003
:020000040020DA
:08000000FFFFFFFFFFFFFFFF00
:020000040030CA
:0E000000FF251F3FFFBF85FF0FC00FE00F4021
:00000001FF
