:04000000E9EF07F02D
:0B0600000048454C4C4F212E2E0000FE
:10060C00026E4FD3000ECAEC07F07E0ECAEC07F058
:10061C00090ECAEC07F0090ECAEC07F0090ECAEC79
:10062C0007F07E0ECAEC07F0000ECAEC07F01200C1
:10063C00000ECAEC07F07F0ECAEC07F0490ECAECAC
:10064C0007F0490ECAEC07F0490ECAEC07F0360E5B
:10065C00CAEC07F0000ECAEC07F01200000ECAEC50
:10066C0007F03E0ECAEC07F0410ECAEC07F0410E43
:10067C00CAEC07F0410ECAEC07F0220ECAEC07F0E8
:10068C00000ECAEC07F01200000ECAEC07F07F0E49
:10069C00CAEC07F0410ECAEC07F0410ECAEC07F0A9
:1006AC00410ECAEC07F03E0ECAEC07F0000ECAEC85
:1006BC0007F01200000ECAEC07F07F0ECAEC07F030
:1006CC00490ECAEC07F0490ECAEC07F0490ECAEC09
:1006DC0007F0410ECAEC07F0000ECAEC07F012004E
:1006EC00000ECAEC07F07F0ECAEC07F0090ECAEC3C
:1006FC0007F0090ECAEC07F0090ECAEC07F0010E60
:10070C00CAEC07F0000ECAEC07F01200000ECAEC9F
:10071C0007F03E0ECAEC07F0410ECAEC07F0410E92
:10072C00CAEC07F0490ECAEC07F03A0ECAEC07F017
:10073C00000ECAEC07F01200000ECAEC07F07F0E98
:10074C00CAEC07F0080ECAEC07F0080ECAEC07F06A
:10075C00080ECAEC07F07F0ECAEC07F0000ECAECCC
:10076C0007F01200000ECAEC07F0000ECAEC07F0FE
:10077C00410ECAEC07F07F0ECAEC07F0410ECAEC32
:10078C0007F0000ECAEC07F0000ECAEC07F01200DE
:10079C00000ECAEC07F0300ECAEC07F0400ECAECA3
:1007AC0007F0400ECAEC07F0400ECAEC07F03F0E03
:1007BC00CAEC07F0000ECAEC07F01200000ECAECEF
:1007CC0007F07F0ECAEC07F0080ECAEC07F0140E07
:1007DC00CAEC07F0220ECAEC07F0410ECAEC07F087
:1007EC00000ECAEC07F01200000ECAEC07F07F0EE8
:1007FC00CAEC07F0400ECAEC07F0400ECAEC07F04A
:10080C00400ECAEC07F0400ECAEC07F0000ECAEC22
:10081C0007F01200000ECAEC07F07F0ECAEC07F0CE
:10082C00020ECAEC07F00C0ECAEC07F0020ECAEC72
:10083C0007F07F0ECAEC07F0000ECAEC07F01200AE
:10084C00000ECAEC07F07F0ECAEC07F0020ECAECE1
:10085C0007F0040ECAEC07F0080ECAEC07F07F0E86
:10086C00CAEC07F0000ECAEC07F01200000ECAEC3E
:10087C0007F03E0ECAEC07F0410ECAEC07F0410E31
:10088C00CAEC07F0410ECAEC07F03E0ECAEC07F0BA
:10089C00000ECAEC07F01200000ECAEC07F07F0E37
:1008AC00CAEC07F0090ECAEC07F0090ECAEC07F007
:1008BC00090ECAEC07F0060ECAEC07F0000ECAECE3
:1008CC0007F01200000ECAEC07F01E0ECAEC07F07F
:1008DC00210ECAEC07F0210ECAEC07F0210ECAEC6F
:1008EC0007F05E0ECAEC07F0000ECAEC07F012001F
:1008FC00000ECAEC07F07F0ECAEC07F0090ECAEC2A
:10090C0007F0090ECAEC07F0090ECAEC07F0760ED8
:10091C00CAEC07F0000ECAEC07F01200000ECAEC8D
:10092C0007F0260ECAEC07F0490ECAEC07F0490E88
:10093C00CAEC07F0490ECAEC07F0320ECAEC07F00D
:10094C00000ECAEC07F01200000ECAEC07F0010E04
:10095C00CAEC07F0010ECAEC07F07F0ECAEC07F0E8
:10096C00010ECAEC07F0010ECAEC07F0000ECAEC3F
:10097C0007F01200000ECAEC07F03F0ECAEC07F0AD
:10098C00400ECAEC07F0400ECAEC07F0400ECAEC61
:10099C0007F03F0ECAEC07F0000ECAEC07F012008D
:1009AC00000ECAEC07F01F0ECAEC07F0200ECAECC2
:1009BC0007F0400ECAEC07F0200ECAEC07F01F0E31
:1009CC00CAEC07F0000ECAEC07F01200000ECAECDD
:1009DC0007F07F0ECAEC07F0200ECAEC07F0100EE1
:1009EC00CAEC07F0200ECAEC07F07F0ECAEC07F039
:1009FC00000ECAEC07F01200000ECAEC07F0410E14
:100A0C00CAEC07F0220ECAEC07F01C0ECAEC07F079
:100A1C00220ECAEC07F0410ECAEC07F0000ECAEC2D
:100A2C0007F01200000ECAEC07F0070ECAEC07F034
:100A3C00080ECAEC07F0700ECAEC07F0080ECAECF0
:100A4C0007F0070ECAEC07F0000ECAEC07F0120014
:100A5C00000ECAEC07F0610ECAEC07F0510ECAEC9E
:100A6C0007F0490ECAEC07F0450ECAEC07F0430E2E
:100A7C00CAEC07F0000ECAEC07F01200000ECAEC2C
:100A8C0007F03E0ECAEC07F0510ECAEC07F0490E07
:100A9C00CAEC07F0450ECAEC07F03E0ECAEC07F0A4
:100AAC00000ECAEC07F01200000ECAEC07F0040EA0
:100ABC00CAEC07F0020ECAEC07F07F0ECAEC07F086
:100ACC00000ECAEC07F0000ECAEC07F0000ECAECE0
:100ADC0007F01200000ECAEC07F0420ECAEC07F049
:100AEC00610ECAEC07F0510ECAEC07F0490ECAECC5
:100AFC0007F0460ECAEC07F0000ECAEC07F0120025
:100B0C00000ECAEC07F0220ECAEC07F0410ECAEC3C
:100B1C0007F0490ECAEC07F0490ECAEC07F0360E86
:100B2C00CAEC07F0000ECAEC07F01200000ECAEC7B
:100B3C0007F0180ECAEC07F0140ECAEC07F0120EF0
:100B4C00CAEC07F07F0ECAEC07F0100ECAEC07F0E7
:100B5C00000ECAEC07F01200000ECAEC07F0270ECC
:100B6C00CAEC07F0450ECAEC07F0450ECAEC07F0CC
:100B7C00450ECAEC07F0390ECAEC07F0000ECAECB1
:100B8C0007F01200000ECAEC07F03E0ECAEC07F09C
:100B9C00490ECAEC07F0490ECAEC07F0490ECAEC34
:100BAC0007F0320ECAEC07F0000ECAEC07F0120088
:100BBC00000ECAEC07F0010ECAEC07F0010ECAECED
:100BCC0007F0710ECAEC07F0090ECAEC07F0070E1D
:100BDC00CAEC07F0000ECAEC07F01200000ECAECCB
:100BEC0007F0360ECAEC07F0490ECAEC07F0490EB6
:100BFC00CAEC07F0490ECAEC07F0360ECAEC07F047
:100C0C00000ECAEC07F01200000ECAEC07F0260E1C
:100C1C00CAEC07F0490ECAEC07F0490ECAEC07F013
:100C2C00490ECAEC07F03E0ECAEC07F0000ECAECF7
:100C3C0007F01200000ECAEC07F0000ECAEC07F029
:100C4C00000ECAEC07F0000ECAEC07F0000ECAEC5E
:100C5C0007F01200FF0ECAEC07F0FF0ECAEC07F00B
:100C6C00FF0ECAEC07F0FF0ECAEC07F0FF0ECAEC41
:100C7C0007F01200FF0ECAEC07F01200000ECAECCF
:100C8C0007F00C0ECAEC07F0120ECAEC07F0120EAD
:100C9C00CAEC07F00C0ECAEC07F0000ECAEC07F019
:100CAC0012000250140AD8B4E5D7340AD8B4C2D70B
:100CBC000A0AD8B4E3D71A0AD8B4E0D6010AD8B4D1
:100CCC00F3D6030AD8B406D7010AD8B419D7070A41
:100CDC00D8B42CD7010AD8B43FD7030AD8B452D70A
:100CEC00010AD8B465D70F0AD8B478D7010AD8B49A
:100CFC008BD7780AD8B486D4030AD8B499D4010A0D
:100D0C00D8B4ACD4070AD8B4BFD4010AD8B4D2D45E
:100D1C00030AD8B4E5D4010AD8B4F8D40F0AD8B46D
:100D2C000BD5010AD8B41ED5030AD8B431D5010AA3
:100D3C00D8B444D5070AD8B457D5010AD8B46AD563
:100D4C00030AD8B47DD5010AD8B490D51F0AD8B4FB
:100D5C00A3D5010AD8B4B6D5030AD8B4C9D5010AAB
:100D6C00D8B4DCD5070AD8B4EFD5010AD8B402D66A
:100D7C00030AD8B415D6010AD8B428D60F0AD8B4A9
:100D8C003BD6010AD8B44ED6030AD8B461D6260A8B
:100D9C00D8A412005FD7000E0F01396F000E0F019F
:100DAC003B6F99EC07F0ADEC07F0150E0B6E4B0E8C
:100DBC000A6EBE0EE82EFED70A2EFCD70B2EFAD7E3
:100DCC0000D0000E0D6E000E0C6E0DBE06D00D5038
:100DDC0020E1080E0C5CD8B01CD0ADEC07F00CC0B8
:100DEC0003F0000EE1EC07F0010E036E060E046E2C
:100DFC0037EC07F0150E0B6E4B0E0A6EBE0EE82E7E
:100E0C00FED70A2EFCD70B2EFAD700D00C4A0D2A8F
:100E1C00DCD7000E0F6E000E0E6E0FBE06D00F50FC
:100E2C00D0E1080E0E5CD8B0CCD7ADEC07F00EC0FC
:100E3C0003F0410EE1EC07F0010E036E060E046E9A
:100E4C0037EC07F0150E0B6E4B0E0A6EBE0EE82E2D
:100E5C00FED70A2EFCD70B2EFAD700D00E4A0F2A3B
:100E6C00DCD7000E076E13D00750010D03C005F040
:100E7C0004C006F0F3500526F450062205C0F6FF18
:100E8C0006C0F7FF0800F55006EC03F0072A0750E0
:100E9C00010D03C005F004C006F0F3500526F45014
:100EAC00062205C0F6FF06C0F7FF0800F550000942
:100EBC00D8B41200D9D7056E05C003F0000EE1ECD2
:100ECC0007F005C003F0400EE1EC07F08188000E3E
:100EDC00076E000E066E07BE06D007500AE1410EE3
:100EEC00065CD8B01200000ECAEC07F0064A072ABE
:100EFC00F2D71200026E81908192400E026005D0F2
:100F0C008188819A02C001F005D0818A81980250B3
:100F1C00C00F016E015040097F0B016E01C083FFB1
:100F2C00D6EC07F01200000E956E000E936E000EBC
:100F3C00836E000E816E81868188818A8188818A88
:100F4C00819081923F0E836ED6EC07F01200000E5A
:100F5C00096E000E086E09500AE1080E085CD8B044
:100F6C001200085061EC07F0084A092AF4D7120065
:100F7C00016E819081920150B809BF0B026E02C0C4
:100F8C0083FFD6EC07F01200016E8180819201C0C4
:100F9C0083FF060EE82EFED700D0D6EC07F0120029
:100FAC008184060EE82EFED700D08194060EE82E22
:100FBC00FED700D01200046E045080EC07F00350F2
:100FCC00BEEC07F01200000EF86E0001D1EF06F037
:020000040020DA
:08000000FFFFFFFFFFFFFFFF00
:020000040030CA
:0E000000FF03193CFF9580FF0FC00FE00F407B
:00000001FF
